{
  "_format": "hh-sol-artifact-1",
  "contractName": "Library",
  "sourceName": "contracts/Library.sol",
  "abi": [
    {
      "anonymous": false,
      "inputs": [
        {
          "indexed": true,
          "internalType": "uint256",
          "name": "id",
          "type": "uint256"
        },
        {
          "indexed": true,
          "internalType": "address",
          "name": "borrower",
          "type": "address"
        }
      ],
      "name": "BookBorrowed",
      "type": "event"
    },
    {
      "anonymous": false,
      "inputs": [
        {
          "indexed": false,
          "internalType": "uint256",
          "name": "id",
          "type": "uint256"
        },
        {
          "indexed": false,
          "internalType": "address",
          "name": "borrower",
          "type": "address"
        }
      ],
      "name": "BookReturned",
      "type": "event"
    },
    {
      "anonymous": false,
      "inputs": [
        {
          "indexed": false,
          "internalType": "uint256",
          "name": "id",
          "type": "uint256"
        },
        {
          "indexed": false,
          "internalType": "string",
          "name": "title",
          "type": "string"
        }
      ],
      "name": "NewBookAdded",
      "type": "event"
    },
    {
      "anonymous": false,
      "inputs": [
        {
          "indexed": false,
          "internalType": "uint256",
          "name": "id",
          "type": "uint256"
        },
        {
          "indexed": false,
          "internalType": "uint256",
          "name": "copies",
          "type": "uint256"
        }
      ],
      "name": "NewCopiesAdded",
      "type": "event"
    },
    {
      "inputs": [
        {
          "internalType": "string",
          "name": "_title",
          "type": "string"
        },
        {
          "internalType": "uint256",
          "name": "_copies",
          "type": "uint256"
        }
      ],
      "name": "addBook",
      "outputs": [],
      "stateMutability": "nonpayable",
      "type": "function"
    },
    {
      "inputs": [
        {
          "internalType": "uint256",
          "name": "_id",
          "type": "uint256"
        }
      ],
      "name": "borrowBook",
      "outputs": [],
      "stateMutability": "nonpayable",
      "type": "function"
    },
    {
      "inputs": [],
      "name": "getAvailableBooks",
      "outputs": [
        {
          "components": [
            {
              "internalType": "uint256",
              "name": "id",
              "type": "uint256"
            },
            {
              "internalType": "string",
              "name": "title",
              "type": "string"
            },
            {
              "internalType": "uint256",
              "name": "copies",
              "type": "uint256"
            }
          ],
          "internalType": "struct Library.AvailableBook[]",
          "name": "",
          "type": "tuple[]"
        }
      ],
      "stateMutability": "view",
      "type": "function"
    },
    {
      "inputs": [
        {
          "internalType": "address",
          "name": "_user",
          "type": "address"
        }
      ],
      "name": "getBorrowedBooks",
      "outputs": [
        {
          "components": [
            {
              "internalType": "uint256",
              "name": "id",
              "type": "uint256"
            },
            {
              "internalType": "string",
              "name": "title",
              "type": "string"
            },
            {
              "internalType": "uint256",
              "name": "copies",
              "type": "uint256"
            }
          ],
          "internalType": "struct Library.AvailableBook[]",
          "name": "",
          "type": "tuple[]"
        }
      ],
      "stateMutability": "view",
      "type": "function"
    },
    {
      "inputs": [],
      "name": "owner",
      "outputs": [
        {
          "internalType": "address",
          "name": "",
          "type": "address"
        }
      ],
      "stateMutability": "view",
      "type": "function"
    },
    {
      "inputs": [
        {
          "internalType": "uint256",
          "name": "_id",
          "type": "uint256"
        }
      ],
      "name": "returnBook",
      "outputs": [],
      "stateMutability": "nonpayable",
      "type": "function"
    }
  ],
  "bytecode": "0x608060405234801561001057600080fd5b50336000806101000a81548173ffffffffffffffffffffffffffffffffffffffff021916908373ffffffffffffffffffffffffffffffffffffffff160217905550611fee806100606000396000f3fe608060405234801561001057600080fd5b50600436106100625760003560e01c806337eb8fd014610067578063637a3872146100975780637e490a9e146100b35780638da5cb5b146100cf578063ca5140c9146100ed578063d6c084d914610109575b600080fd5b610081600480360381019061007c9190611252565b610127565b60405161008e919061143a565b60405180910390f35b6100b160048036038101906100ac91906114ed565b610345565b005b6100cd60048036038101906100c8919061154d565b610637565b005b6100d76108f2565b6040516100e49190611589565b60405180910390f35b6101076004803603810190610102919061154d565b610916565b005b610111610c5f565b60405161011e919061143a565b60405180910390f35b60606000600260008473ffffffffffffffffffffffffffffffffffffffff1673ffffffffffffffffffffffffffffffffffffffff1681526020019081526020016000208054806020026020016040519081016040528092919081815260200182805480156101b457602002820191906000526020600020905b8154815260200190600101908083116101a0575b505050505090506000815167ffffffffffffffff8111156101d8576101d76115a4565b5b60405190808252806020026020018201604052801561021157816020015b6101fe6111c9565b8152602001906001900390816101f65790505b50905060005b825181101561033a576000838281518110610235576102346115d3565b5b60200260200101519050604051806060016040528082815260200160018381548110610264576102636115d3565b5b9060005260206000209060030201600001805461028090611631565b80601f01602080910402602001604051908101604052809291908181526020018280546102ac90611631565b80156102f95780601f106102ce576101008083540402835291602001916102f9565b820191906000526020600020905b8154815290600101906020018083116102dc57829003601f168201915b50505050508152602001600181525083838151811061031b5761031a6115d3565b5b602002602001018190525050808061033290611691565b915050610217565b508092505050919050565b3373ffffffffffffffffffffffffffffffffffffffff1660008054906101000a900473ffffffffffffffffffffffffffffffffffffffff1673ffffffffffffffffffffffffffffffffffffffff16146103d3576040517f08c379a00000000000000000000000000000000000000000000000000000000081526004016103ca9061175c565b60405180910390fd5b60008111610416576040517f08c379a000000000000000000000000000000000000000000000000000000000815260040161040d906117ee565b60405180910390fd5b60005b60018054905081101561054b57838360405160200161043992919061184d565b6040516020818303038152906040528051906020012060018281548110610463576104626115d3565b5b906000526020600020906003020160000160405160200161048491906118fe565b60405160208183030381529060405280519060200120036105385781600182815481106104b4576104b36115d3565b5b9060005260206000209060030201600101546104d09190611915565b600182815481106104e4576104e36115d3565b5b9060005260206000209060030201600101819055507f4e7fbcc359970a72cdad1ece1300b8b8d9a1a63b3e0fcce89c4db27bcb4c2cf8818360405161052a929190611958565b60405180910390a150610632565b808061054390611691565b915050610419565b5060018081600181540180825580915050039060005260206000209050508282600180808054905061057d9190611981565b8154811061058e5761058d6115d3565b5b906000526020600020906003020160000191826105ac929190611b57565b508060018080805490506105c09190611981565b815481106105d1576105d06115d3565b5b9060005260206000209060030201600101819055507f86b447e76b491834cb69eb2a23fccb480f36549da34f97ed20dd3c9a124425d6600180805490506106189190611981565b848460405161062993929190611c54565b60405180910390a15b505050565b80600060018054905011610680576040517f08c379a000000000000000000000000000000000000000000000000000000000815260040161067790611cf8565b60405180910390fd5b600180805490506106919190611981565b8111156106d3576040517f08c379a00000000000000000000000000000000000000000000000000000000081526004016106ca90611d8a565b60405180910390fd5b600015156106e18333610f2c565b151514610723576040517f08c379a000000000000000000000000000000000000000000000000000000000815260040161071a90611e1c565b60405180910390fd5b600060018381548110610739576107386115d3565b5b90600052602060002090600302016002018054905060018481548110610762576107616115d3565b5b90600052602060002090600302016001015461077e9190611981565b116107be576040517f08c379a00000000000000000000000000000000000000000000000000000000081526004016107b590611eae565b60405180910390fd5b600182815481106107d2576107d16115d3565b5b9060005260206000209060030201600201339080600181540180825580915050600190039060005260206000200160009091909190916101000a81548173ffffffffffffffffffffffffffffffffffffffff021916908373ffffffffffffffffffffffffffffffffffffffff160217905550600260003373ffffffffffffffffffffffffffffffffffffffff1673ffffffffffffffffffffffffffffffffffffffff1681526020019081526020016000208290806001815401808255809150506001900390600052602060002001600090919091909150553373ffffffffffffffffffffffffffffffffffffffff16827f7534124779d4d1eaf9cabba5f94b2b281856aba81c295cde4c9e69483b04b8cc60405160405180910390a35050565b60008054906101000a900473ffffffffffffffffffffffffffffffffffffffff1681565b8060006001805490501161095f576040517f08c379a000000000000000000000000000000000000000000000000000000000815260040161095690611cf8565b60405180910390fd5b600180805490506109709190611981565b8111156109b2576040517f08c379a00000000000000000000000000000000000000000000000000000000081526004016109a990611d8a565b60405180910390fd5b600115156109c08333610f2c565b151514610a02576040517f08c379a00000000000000000000000000000000000000000000000000000000081526004016109f990611f40565b60405180910390fd5b60005b60018381548110610a1957610a186115d3565b5b906000526020600020906003020160020180549050811015610c595760018381548110610a4957610a486115d3565b5b90600052602060002090600302016002018181548110610a6c57610a6b6115d3565b5b9060005260206000200160009054906101000a900473ffffffffffffffffffffffffffffffffffffffff1673ffffffffffffffffffffffffffffffffffffffff163373ffffffffffffffffffffffffffffffffffffffff1603610c4657610af760018481548110610ae057610adf6115d3565b5b906000526020600020906003020160020182611021565b60005b600260003373ffffffffffffffffffffffffffffffffffffffff1673ffffffffffffffffffffffffffffffffffffffff16815260200190815260200160002080549050811015610c065783600260003373ffffffffffffffffffffffffffffffffffffffff1673ffffffffffffffffffffffffffffffffffffffff1681526020019081526020016000208281548110610b9657610b956115d3565b5b906000526020600020015403610bf357610bee600260003373ffffffffffffffffffffffffffffffffffffffff1673ffffffffffffffffffffffffffffffffffffffff16815260200190815260200160002082611114565b610c06565b8080610bfe90611691565b915050610afa565b507f8430f3edf8e599216e82e74036a3997b56dda6283ea97e28f330b76e914eef618333604051610c38929190611f60565b60405180910390a150610c5b565b8080610c5190611691565b915050610a05565b505b5050565b60606000805b600180549050811015610cf557600060018281548110610c8857610c876115d3565b5b90600052602060002090600302016002018054905060018381548110610cb157610cb06115d3565b5b906000526020600020906003020160010154610ccd9190611981565b1115610ce2578180610cde90611691565b9250505b8080610ced90611691565b915050610c65565b5060008167ffffffffffffffff811115610d1257610d116115a4565b5b604051908082528060200260200182016040528015610d4b57816020015b610d386111c9565b815260200190600190039081610d305790505b5090506000915060005b600180549050811015610f2357600060018281548110610d7857610d776115d3565b5b90600052602060002090600302016002018054905060018381548110610da157610da06115d3565b5b906000526020600020906003020160010154610dbd9190611981565b1115610f1057604051806060016040528082815260200160018381548110610de857610de76115d3565b5b90600052602060002090600302016000018054610e0490611631565b80601f0160208091040260200160405190810160405280929190818152602001828054610e3090611631565b8015610e7d5780601f10610e5257610100808354040283529160200191610e7d565b820191906000526020600020905b815481529060010190602001808311610e6057829003601f168201915b5050505050815260200160018381548110610e9b57610e9a6115d3565b5b90600052602060002090600302016002018054905060018481548110610ec457610ec36115d3565b5b906000526020600020906003020160010154610ee09190611981565b815250828481518110610ef657610ef56115d3565b5b60200260200101819052508280610f0c90611691565b9350505b8080610f1b90611691565b915050610d55565b50809250505090565b600080600090505b60018481548110610f4857610f476115d3565b5b9060005260206000209060030201600201805490508110156110155760018481548110610f7857610f776115d3565b5b90600052602060002090600302016002018181548110610f9b57610f9a6115d3565b5b9060005260206000200160009054906101000a900473ffffffffffffffffffffffffffffffffffffffff1673ffffffffffffffffffffffffffffffffffffffff168373ffffffffffffffffffffffffffffffffffffffff160361100257600191505061101b565b808061100d90611691565b915050610f34565b50600090505b92915050565b81600183805490506110339190611981565b81548110611044576110436115d3565b5b9060005260206000200160009054906101000a900473ffffffffffffffffffffffffffffffffffffffff16828281548110611082576110816115d3565b5b9060005260206000200160006101000a81548173ffffffffffffffffffffffffffffffffffffffff021916908373ffffffffffffffffffffffffffffffffffffffff160217905550818054806110db576110da611f89565b5b6001900381819060005260206000200160006101000a81549073ffffffffffffffffffffffffffffffffffffffff021916905590555050565b81805490508110156111c55760008190505b600183805490506111379190611981565b81101561119c578260018261114c9190611915565b8154811061115d5761115c6115d3565b5b906000526020600020015483828154811061117b5761117a6115d3565b5b9060005260206000200181905550808061119490611691565b915050611126565b50818054806111ae576111ad611f89565b5b600190038181906000526020600020016000905590555b5050565b60405180606001604052806000815260200160608152602001600081525090565b600080fd5b600080fd5b600073ffffffffffffffffffffffffffffffffffffffff82169050919050565b600061121f826111f4565b9050919050565b61122f81611214565b811461123a57600080fd5b50565b60008135905061124c81611226565b92915050565b600060208284031215611268576112676111ea565b5b60006112768482850161123d565b91505092915050565b600081519050919050565b600082825260208201905092915050565b6000819050602082019050919050565b6000819050919050565b6112be816112ab565b82525050565b600081519050919050565b600082825260208201905092915050565b60005b838110156112fe5780820151818401526020810190506112e3565b60008484015250505050565b6000601f19601f8301169050919050565b6000611326826112c4565b61133081856112cf565b93506113408185602086016112e0565b6113498161130a565b840191505092915050565b600060608301600083015161136c60008601826112b5565b5060208301518482036020860152611384828261131b565b915050604083015161139960408601826112b5565b508091505092915050565b60006113b08383611354565b905092915050565b6000602082019050919050565b60006113d08261127f565b6113da818561128a565b9350836020820285016113ec8561129b565b8060005b85811015611428578484038952815161140985826113a4565b9450611414836113b8565b925060208a019950506001810190506113f0565b50829750879550505050505092915050565b6000602082019050818103600083015261145481846113c5565b905092915050565b600080fd5b600080fd5b600080fd5b60008083601f8401126114815761148061145c565b5b8235905067ffffffffffffffff81111561149e5761149d611461565b5b6020830191508360018202830111156114ba576114b9611466565b5b9250929050565b6114ca816112ab565b81146114d557600080fd5b50565b6000813590506114e7816114c1565b92915050565b600080600060408486031215611506576115056111ea565b5b600084013567ffffffffffffffff811115611524576115236111ef565b5b6115308682870161146b565b93509350506020611543868287016114d8565b9150509250925092565b600060208284031215611563576115626111ea565b5b6000611571848285016114d8565b91505092915050565b61158381611214565b82525050565b600060208201905061159e600083018461157a565b92915050565b7f4e487b7100000000000000000000000000000000000000000000000000000000600052604160045260246000fd5b7f4e487b7100000000000000000000000000000000000000000000000000000000600052603260045260246000fd5b7f4e487b7100000000000000000000000000000000000000000000000000000000600052602260045260246000fd5b6000600282049050600182168061164957607f821691505b60208210810361165c5761165b611602565b5b50919050565b7f4e487b7100000000000000000000000000000000000000000000000000000000600052601160045260246000fd5b600061169c826112ab565b91507fffffffffffffffffffffffffffffffffffffffffffffffffffffffffffffffff82036116ce576116cd611662565b5b600182019050919050565b600082825260208201905092915050565b7f436f6e747261637420776173206e6f742063616c6c656420627920746865206f60008201527f776e657200000000000000000000000000000000000000000000000000000000602082015250565b60006117466024836116d9565b9150611751826116ea565b604082019050919050565b6000602082019050818103600083015261177581611739565b9050919050565b7f416464206174206c65617374206f6e6520636f7079206f662074686520626f6f60008201527f6b00000000000000000000000000000000000000000000000000000000000000602082015250565b60006117d86021836116d9565b91506117e38261177c565b604082019050919050565b60006020820190508181036000830152611807816117cb565b9050919050565b600081905092915050565b82818337600083830152505050565b6000611834838561180e565b9350611841838584611819565b82840190509392505050565b600061185a828486611828565b91508190509392505050565b60008190508160005260206000209050919050565b6000815461188881611631565b611892818661180e565b945060018216600081146118ad57600181146118c2576118f5565b60ff19831686528115158202860193506118f5565b6118cb85611866565b60005b838110156118ed578154818901526001820191506020810190506118ce565b838801955050505b50505092915050565b600061190a828461187b565b915081905092915050565b6000611920826112ab565b915061192b836112ab565b925082820190508082111561194357611942611662565b5b92915050565b611952816112ab565b82525050565b600060408201905061196d6000830185611949565b61197a6020830184611949565b9392505050565b600061198c826112ab565b9150611997836112ab565b92508282039050818111156119af576119ae611662565b5b92915050565b600082905092915050565b60006020601f8301049050919050565b600082821b905092915050565b600060088302611a0d7fffffffffffffffffffffffffffffffffffffffffffffffffffffffffffffffff826119d0565b611a1786836119d0565b95508019841693508086168417925050509392505050565b6000819050919050565b6000611a54611a4f611a4a846112ab565b611a2f565b6112ab565b9050919050565b6000819050919050565b611a6e83611a39565b611a82611a7a82611a5b565b8484546119dd565b825550505050565b600090565b611a97611a8a565b611aa2818484611a65565b505050565b5b81811015611ac657611abb600082611a8f565b600181019050611aa8565b5050565b601f821115611b0b57611adc81611866565b611ae5846119c0565b81016020851015611af4578190505b611b08611b00856119c0565b830182611aa7565b50505b505050565b600082821c905092915050565b6000611b2e60001984600802611b10565b1980831691505092915050565b6000611b478383611b1d565b9150826002028217905092915050565b611b6183836119b5565b67ffffffffffffffff811115611b7a57611b796115a4565b5b611b848254611631565b611b8f828285611aca565b6000601f831160018114611bbe5760008415611bac578287013590505b611bb68582611b3b565b865550611c1e565b601f198416611bcc86611866565b60005b82811015611bf457848901358255600182019150602085019450602081019050611bcf565b86831015611c115784890135611c0d601f891682611b1d565b8355505b6001600288020188555050505b50505050505050565b6000611c3383856116d9565b9350611c40838584611819565b611c498361130a565b840190509392505050565b6000604082019050611c696000830186611949565b8181036020830152611c7c818486611c27565b9050949350505050565b7f546865206c69627261727920686173206e6f20626f6f6b732063757272656e7460008201527f6c79000000000000000000000000000000000000000000000000000000000000602082015250565b6000611ce26022836116d9565b9150611ced82611c86565b604082019050919050565b60006020820190508181036000830152611d1181611cd5565b9050919050565b7f426f6f6b2077697468207468697320696420646f6573206e6f7420657869737460008201527f20696e2074686520636f6c6c656374696f6e0000000000000000000000000000602082015250565b6000611d746032836116d9565b9150611d7f82611d18565b604082019050919050565b60006020820190508181036000830152611da381611d67565b9050919050565b7f426f6f6b73206d7573742062652072657475726e6564206265666f726520697460008201527f2063616e20626520626f72726f77656420616761696e00000000000000000000602082015250565b6000611e066036836116d9565b9150611e1182611daa565b604082019050919050565b60006020820190508181036000830152611e3581611df9565b9050919050565b7f546865726520617265206e6f20636f70696573206f662074686520626f6f6b2060008201527f63757272656e746c7920617661696c61626c6500000000000000000000000000602082015250565b6000611e986033836116d9565b9150611ea382611e3c565b604082019050919050565b60006020820190508181036000830152611ec781611e8b565b9050919050565b7f596f7520646f206e6f742068617665207468697320626f6f6b206f7574206f6e60008201527f206c6f616e000000000000000000000000000000000000000000000000000000602082015250565b6000611f2a6025836116d9565b9150611f3582611ece565b604082019050919050565b60006020820190508181036000830152611f5981611f1d565b9050919050565b6000604082019050611f756000830185611949565b611f82602083018461157a565b9392505050565b7f4e487b7100000000000000000000000000000000000000000000000000000000600052603160045260246000fdfea2646970667358221220533e9d2cd5fac4be0e7df3e4d0164af40057be00a16267f6e550cafe0e26d52b64736f6c63430008140033",
  "linkReferences": {},
  "deployedLinkReferences": {}
}