{
  "_format": "hh-sol-artifact-1",
  "contractName": "Library",
  "sourceName": "contracts/Library.sol",
  "abi": [
    {
      "anonymous": false,
      "inputs": [
        {
          "indexed": true,
          "internalType": "uint256",
          "name": "id",
          "type": "uint256"
        },
        {
          "indexed": false,
          "internalType": "address",
          "name": "borrower",
          "type": "address"
        }
      ],
      "name": "BookBorrowed",
      "type": "event"
    },
    {
      "anonymous": false,
      "inputs": [
        {
          "indexed": false,
          "internalType": "uint256",
          "name": "id",
          "type": "uint256"
        },
        {
          "indexed": false,
          "internalType": "address",
          "name": "borrower",
          "type": "address"
        }
      ],
      "name": "BookReturned",
      "type": "event"
    },
    {
      "anonymous": false,
      "inputs": [
        {
          "indexed": false,
          "internalType": "uint256",
          "name": "id",
          "type": "uint256"
        },
        {
          "indexed": false,
          "internalType": "string",
          "name": "title",
          "type": "string"
        }
      ],
      "name": "NewBookAdded",
      "type": "event"
    },
    {
      "anonymous": false,
      "inputs": [
        {
          "indexed": false,
          "internalType": "uint256",
          "name": "id",
          "type": "uint256"
        },
        {
          "indexed": false,
          "internalType": "uint256",
          "name": "copies",
          "type": "uint256"
        }
      ],
      "name": "NewCopiesAdded",
      "type": "event"
    },
    {
      "inputs": [
        {
          "internalType": "string",
          "name": "_title",
          "type": "string"
        },
        {
          "internalType": "uint256",
          "name": "_copies",
          "type": "uint256"
        }
      ],
      "name": "addBook",
      "outputs": [],
      "stateMutability": "nonpayable",
      "type": "function"
    },
    {
      "inputs": [
        {
          "internalType": "uint256",
          "name": "_id",
          "type": "uint256"
        }
      ],
      "name": "borrowBook",
      "outputs": [],
      "stateMutability": "nonpayable",
      "type": "function"
    },
    {
      "inputs": [],
      "name": "getAvailableBooks",
      "outputs": [
        {
          "components": [
            {
              "internalType": "uint256",
              "name": "id",
              "type": "uint256"
            },
            {
              "internalType": "string",
              "name": "title",
              "type": "string"
            },
            {
              "internalType": "uint256",
              "name": "copies",
              "type": "uint256"
            }
          ],
          "internalType": "struct Library.AvailableBook[]",
          "name": "",
          "type": "tuple[]"
        }
      ],
      "stateMutability": "view",
      "type": "function"
    },
    {
      "inputs": [
        {
          "internalType": "address",
          "name": "_user",
          "type": "address"
        }
      ],
      "name": "getBorrowedBooks",
      "outputs": [
        {
          "components": [
            {
              "internalType": "uint256",
              "name": "id",
              "type": "uint256"
            },
            {
              "internalType": "string",
              "name": "title",
              "type": "string"
            },
            {
              "internalType": "uint256",
              "name": "copies",
              "type": "uint256"
            }
          ],
          "internalType": "struct Library.AvailableBook[]",
          "name": "",
          "type": "tuple[]"
        }
      ],
      "stateMutability": "view",
      "type": "function"
    },
    {
      "inputs": [],
      "name": "owner",
      "outputs": [
        {
          "internalType": "address",
          "name": "",
          "type": "address"
        }
      ],
      "stateMutability": "view",
      "type": "function"
    },
    {
      "inputs": [
        {
          "internalType": "uint256",
          "name": "_id",
          "type": "uint256"
        }
      ],
      "name": "returnBook",
      "outputs": [],
      "stateMutability": "nonpayable",
      "type": "function"
    }
  ],
  "bytecode": "0x608060405234801561001057600080fd5b50336000806101000a81548173ffffffffffffffffffffffffffffffffffffffff021916908373ffffffffffffffffffffffffffffffffffffffff160217905550611fe2806100606000396000f3fe608060405234801561001057600080fd5b50600436106100625760003560e01c806337eb8fd014610067578063637a3872146100975780637e490a9e146100b35780638da5cb5b146100cf578063ca5140c9146100ed578063d6c084d914610109575b600080fd5b610081600480360381019061007c9190611246565b610127565b60405161008e919061142e565b60405180910390f35b6100b160048036038101906100ac91906114e1565b610345565b005b6100cd60048036038101906100c89190611541565b610637565b005b6100d76108e6565b6040516100e4919061157d565b60405180910390f35b61010760048036038101906101029190611541565b61090a565b005b610111610c53565b60405161011e919061142e565b60405180910390f35b60606000600260008473ffffffffffffffffffffffffffffffffffffffff1673ffffffffffffffffffffffffffffffffffffffff1681526020019081526020016000208054806020026020016040519081016040528092919081815260200182805480156101b457602002820191906000526020600020905b8154815260200190600101908083116101a0575b505050505090506000815167ffffffffffffffff8111156101d8576101d7611598565b5b60405190808252806020026020018201604052801561021157816020015b6101fe6111bd565b8152602001906001900390816101f65790505b50905060005b825181101561033a576000838281518110610235576102346115c7565b5b60200260200101519050604051806060016040528082815260200160018381548110610264576102636115c7565b5b9060005260206000209060030201600001805461028090611625565b80601f01602080910402602001604051908101604052809291908181526020018280546102ac90611625565b80156102f95780601f106102ce576101008083540402835291602001916102f9565b820191906000526020600020905b8154815290600101906020018083116102dc57829003601f168201915b50505050508152602001600181525083838151811061031b5761031a6115c7565b5b602002602001018190525050808061033290611685565b915050610217565b508092505050919050565b3373ffffffffffffffffffffffffffffffffffffffff1660008054906101000a900473ffffffffffffffffffffffffffffffffffffffff1673ffffffffffffffffffffffffffffffffffffffff16146103d3576040517f08c379a00000000000000000000000000000000000000000000000000000000081526004016103ca90611750565b60405180910390fd5b60008111610416576040517f08c379a000000000000000000000000000000000000000000000000000000000815260040161040d906117e2565b60405180910390fd5b60005b60018054905081101561054b578383604051602001610439929190611841565b6040516020818303038152906040528051906020012060018281548110610463576104626115c7565b5b906000526020600020906003020160000160405160200161048491906118f2565b60405160208183030381529060405280519060200120036105385781600182815481106104b4576104b36115c7565b5b9060005260206000209060030201600101546104d09190611909565b600182815481106104e4576104e36115c7565b5b9060005260206000209060030201600101819055507f4e7fbcc359970a72cdad1ece1300b8b8d9a1a63b3e0fcce89c4db27bcb4c2cf8818360405161052a92919061194c565b60405180910390a150610632565b808061054390611685565b915050610419565b5060018081600181540180825580915050039060005260206000209050508282600180808054905061057d9190611975565b8154811061058e5761058d6115c7565b5b906000526020600020906003020160000191826105ac929190611b4b565b508060018080805490506105c09190611975565b815481106105d1576105d06115c7565b5b9060005260206000209060030201600101819055507f86b447e76b491834cb69eb2a23fccb480f36549da34f97ed20dd3c9a124425d6600180805490506106189190611975565b848460405161062993929190611c48565b60405180910390a15b505050565b80600060018054905011610680576040517f08c379a000000000000000000000000000000000000000000000000000000000815260040161067790611cec565b60405180910390fd5b600180805490506106919190611975565b8111156106d3576040517f08c379a00000000000000000000000000000000000000000000000000000000081526004016106ca90611d7e565b60405180910390fd5b600015156106e18333610f20565b151514610723576040517f08c379a000000000000000000000000000000000000000000000000000000000815260040161071a90611e10565b60405180910390fd5b600060018381548110610739576107386115c7565b5b90600052602060002090600302016002018054905060018481548110610762576107616115c7565b5b90600052602060002090600302016001015461077e9190611975565b116107be576040517f08c379a00000000000000000000000000000000000000000000000000000000081526004016107b590611ea2565b60405180910390fd5b600182815481106107d2576107d16115c7565b5b9060005260206000209060030201600201339080600181540180825580915050600190039060005260206000200160009091909190916101000a81548173ffffffffffffffffffffffffffffffffffffffff021916908373ffffffffffffffffffffffffffffffffffffffff160217905550600260003373ffffffffffffffffffffffffffffffffffffffff1673ffffffffffffffffffffffffffffffffffffffff168152602001908152602001600020829080600181540180825580915050600190039060005260206000200160009091909190915055817f7534124779d4d1eaf9cabba5f94b2b281856aba81c295cde4c9e69483b04b8cc336040516108da919061157d565b60405180910390a25050565b60008054906101000a900473ffffffffffffffffffffffffffffffffffffffff1681565b80600060018054905011610953576040517f08c379a000000000000000000000000000000000000000000000000000000000815260040161094a90611cec565b60405180910390fd5b600180805490506109649190611975565b8111156109a6576040517f08c379a000000000000000000000000000000000000000000000000000000000815260040161099d90611d7e565b60405180910390fd5b600115156109b48333610f20565b1515146109f6576040517f08c379a00000000000000000000000000000000000000000000000000000000081526004016109ed90611f34565b60405180910390fd5b60005b60018381548110610a0d57610a0c6115c7565b5b906000526020600020906003020160020180549050811015610c4d5760018381548110610a3d57610a3c6115c7565b5b90600052602060002090600302016002018181548110610a6057610a5f6115c7565b5b9060005260206000200160009054906101000a900473ffffffffffffffffffffffffffffffffffffffff1673ffffffffffffffffffffffffffffffffffffffff163373ffffffffffffffffffffffffffffffffffffffff1603610c3a57610aeb60018481548110610ad457610ad36115c7565b5b906000526020600020906003020160020182611015565b60005b600260003373ffffffffffffffffffffffffffffffffffffffff1673ffffffffffffffffffffffffffffffffffffffff16815260200190815260200160002080549050811015610bfa5783600260003373ffffffffffffffffffffffffffffffffffffffff1673ffffffffffffffffffffffffffffffffffffffff1681526020019081526020016000208281548110610b8a57610b896115c7565b5b906000526020600020015403610be757610be2600260003373ffffffffffffffffffffffffffffffffffffffff1673ffffffffffffffffffffffffffffffffffffffff16815260200190815260200160002082611108565b610bfa565b8080610bf290611685565b915050610aee565b507f8430f3edf8e599216e82e74036a3997b56dda6283ea97e28f330b76e914eef618333604051610c2c929190611f54565b60405180910390a150610c4f565b8080610c4590611685565b9150506109f9565b505b5050565b60606000805b600180549050811015610ce957600060018281548110610c7c57610c7b6115c7565b5b90600052602060002090600302016002018054905060018381548110610ca557610ca46115c7565b5b906000526020600020906003020160010154610cc19190611975565b1115610cd6578180610cd290611685565b9250505b8080610ce190611685565b915050610c59565b5060008167ffffffffffffffff811115610d0657610d05611598565b5b604051908082528060200260200182016040528015610d3f57816020015b610d2c6111bd565b815260200190600190039081610d245790505b5090506000915060005b600180549050811015610f1757600060018281548110610d6c57610d6b6115c7565b5b90600052602060002090600302016002018054905060018381548110610d9557610d946115c7565b5b906000526020600020906003020160010154610db19190611975565b1115610f0457604051806060016040528082815260200160018381548110610ddc57610ddb6115c7565b5b90600052602060002090600302016000018054610df890611625565b80601f0160208091040260200160405190810160405280929190818152602001828054610e2490611625565b8015610e715780601f10610e4657610100808354040283529160200191610e71565b820191906000526020600020905b815481529060010190602001808311610e5457829003601f168201915b5050505050815260200160018381548110610e8f57610e8e6115c7565b5b90600052602060002090600302016002018054905060018481548110610eb857610eb76115c7565b5b906000526020600020906003020160010154610ed49190611975565b815250828481518110610eea57610ee96115c7565b5b60200260200101819052508280610f0090611685565b9350505b8080610f0f90611685565b915050610d49565b50809250505090565b600080600090505b60018481548110610f3c57610f3b6115c7565b5b9060005260206000209060030201600201805490508110156110095760018481548110610f6c57610f6b6115c7565b5b90600052602060002090600302016002018181548110610f8f57610f8e6115c7565b5b9060005260206000200160009054906101000a900473ffffffffffffffffffffffffffffffffffffffff1673ffffffffffffffffffffffffffffffffffffffff168373ffffffffffffffffffffffffffffffffffffffff1603610ff657600191505061100f565b808061100190611685565b915050610f28565b50600090505b92915050565b81600183805490506110279190611975565b81548110611038576110376115c7565b5b9060005260206000200160009054906101000a900473ffffffffffffffffffffffffffffffffffffffff16828281548110611076576110756115c7565b5b9060005260206000200160006101000a81548173ffffffffffffffffffffffffffffffffffffffff021916908373ffffffffffffffffffffffffffffffffffffffff160217905550818054806110cf576110ce611f7d565b5b6001900381819060005260206000200160006101000a81549073ffffffffffffffffffffffffffffffffffffffff021916905590555050565b81805490508110156111b95760008190505b6001838054905061112b9190611975565b81101561119057826001826111409190611909565b81548110611151576111506115c7565b5b906000526020600020015483828154811061116f5761116e6115c7565b5b9060005260206000200181905550808061118890611685565b91505061111a565b50818054806111a2576111a1611f7d565b5b600190038181906000526020600020016000905590555b5050565b60405180606001604052806000815260200160608152602001600081525090565b600080fd5b600080fd5b600073ffffffffffffffffffffffffffffffffffffffff82169050919050565b6000611213826111e8565b9050919050565b61122381611208565b811461122e57600080fd5b50565b6000813590506112408161121a565b92915050565b60006020828403121561125c5761125b6111de565b5b600061126a84828501611231565b91505092915050565b600081519050919050565b600082825260208201905092915050565b6000819050602082019050919050565b6000819050919050565b6112b28161129f565b82525050565b600081519050919050565b600082825260208201905092915050565b60005b838110156112f25780820151818401526020810190506112d7565b60008484015250505050565b6000601f19601f8301169050919050565b600061131a826112b8565b61132481856112c3565b93506113348185602086016112d4565b61133d816112fe565b840191505092915050565b600060608301600083015161136060008601826112a9565b5060208301518482036020860152611378828261130f565b915050604083015161138d60408601826112a9565b508091505092915050565b60006113a48383611348565b905092915050565b6000602082019050919050565b60006113c482611273565b6113ce818561127e565b9350836020820285016113e08561128f565b8060005b8581101561141c57848403895281516113fd8582611398565b9450611408836113ac565b925060208a019950506001810190506113e4565b50829750879550505050505092915050565b6000602082019050818103600083015261144881846113b9565b905092915050565b600080fd5b600080fd5b600080fd5b60008083601f84011261147557611474611450565b5b8235905067ffffffffffffffff81111561149257611491611455565b5b6020830191508360018202830111156114ae576114ad61145a565b5b9250929050565b6114be8161129f565b81146114c957600080fd5b50565b6000813590506114db816114b5565b92915050565b6000806000604084860312156114fa576114f96111de565b5b600084013567ffffffffffffffff811115611518576115176111e3565b5b6115248682870161145f565b93509350506020611537868287016114cc565b9150509250925092565b600060208284031215611557576115566111de565b5b6000611565848285016114cc565b91505092915050565b61157781611208565b82525050565b6000602082019050611592600083018461156e565b92915050565b7f4e487b7100000000000000000000000000000000000000000000000000000000600052604160045260246000fd5b7f4e487b7100000000000000000000000000000000000000000000000000000000600052603260045260246000fd5b7f4e487b7100000000000000000000000000000000000000000000000000000000600052602260045260246000fd5b6000600282049050600182168061163d57607f821691505b6020821081036116505761164f6115f6565b5b50919050565b7f4e487b7100000000000000000000000000000000000000000000000000000000600052601160045260246000fd5b60006116908261129f565b91507fffffffffffffffffffffffffffffffffffffffffffffffffffffffffffffffff82036116c2576116c1611656565b5b600182019050919050565b600082825260208201905092915050565b7f436f6e747261637420776173206e6f742063616c6c656420627920746865206f60008201527f776e657200000000000000000000000000000000000000000000000000000000602082015250565b600061173a6024836116cd565b9150611745826116de565b604082019050919050565b600060208201905081810360008301526117698161172d565b9050919050565b7f416464206174206c65617374206f6e6520636f7079206f662074686520626f6f60008201527f6b00000000000000000000000000000000000000000000000000000000000000602082015250565b60006117cc6021836116cd565b91506117d782611770565b604082019050919050565b600060208201905081810360008301526117fb816117bf565b9050919050565b600081905092915050565b82818337600083830152505050565b60006118288385611802565b935061183583858461180d565b82840190509392505050565b600061184e82848661181c565b91508190509392505050565b60008190508160005260206000209050919050565b6000815461187c81611625565b6118868186611802565b945060018216600081146118a157600181146118b6576118e9565b60ff19831686528115158202860193506118e9565b6118bf8561185a565b60005b838110156118e1578154818901526001820191506020810190506118c2565b838801955050505b50505092915050565b60006118fe828461186f565b915081905092915050565b60006119148261129f565b915061191f8361129f565b925082820190508082111561193757611936611656565b5b92915050565b6119468161129f565b82525050565b6000604082019050611961600083018561193d565b61196e602083018461193d565b9392505050565b60006119808261129f565b915061198b8361129f565b92508282039050818111156119a3576119a2611656565b5b92915050565b600082905092915050565b60006020601f8301049050919050565b600082821b905092915050565b600060088302611a017fffffffffffffffffffffffffffffffffffffffffffffffffffffffffffffffff826119c4565b611a0b86836119c4565b95508019841693508086168417925050509392505050565b6000819050919050565b6000611a48611a43611a3e8461129f565b611a23565b61129f565b9050919050565b6000819050919050565b611a6283611a2d565b611a76611a6e82611a4f565b8484546119d1565b825550505050565b600090565b611a8b611a7e565b611a96818484611a59565b505050565b5b81811015611aba57611aaf600082611a83565b600181019050611a9c565b5050565b601f821115611aff57611ad08161185a565b611ad9846119b4565b81016020851015611ae8578190505b611afc611af4856119b4565b830182611a9b565b50505b505050565b600082821c905092915050565b6000611b2260001984600802611b04565b1980831691505092915050565b6000611b3b8383611b11565b9150826002028217905092915050565b611b5583836119a9565b67ffffffffffffffff811115611b6e57611b6d611598565b5b611b788254611625565b611b83828285611abe565b6000601f831160018114611bb25760008415611ba0578287013590505b611baa8582611b2f565b865550611c12565b601f198416611bc08661185a565b60005b82811015611be857848901358255600182019150602085019450602081019050611bc3565b86831015611c055784890135611c01601f891682611b11565b8355505b6001600288020188555050505b50505050505050565b6000611c2783856116cd565b9350611c3483858461180d565b611c3d836112fe565b840190509392505050565b6000604082019050611c5d600083018661193d565b8181036020830152611c70818486611c1b565b9050949350505050565b7f546865206c69627261727920686173206e6f20626f6f6b732063757272656e7460008201527f6c79000000000000000000000000000000000000000000000000000000000000602082015250565b6000611cd66022836116cd565b9150611ce182611c7a565b604082019050919050565b60006020820190508181036000830152611d0581611cc9565b9050919050565b7f426f6f6b2077697468207468697320696420646f6573206e6f7420657869737460008201527f20696e2074686520636f6c6c656374696f6e0000000000000000000000000000602082015250565b6000611d686032836116cd565b9150611d7382611d0c565b604082019050919050565b60006020820190508181036000830152611d9781611d5b565b9050919050565b7f426f6f6b73206d7573742062652072657475726e6564206265666f726520697460008201527f2063616e20626520626f72726f77656420616761696e00000000000000000000602082015250565b6000611dfa6036836116cd565b9150611e0582611d9e565b604082019050919050565b60006020820190508181036000830152611e2981611ded565b9050919050565b7f546865726520617265206e6f20636f70696573206f662074686520626f6f6b2060008201527f63757272656e746c7920617661696c61626c6500000000000000000000000000602082015250565b6000611e8c6033836116cd565b9150611e9782611e30565b604082019050919050565b60006020820190508181036000830152611ebb81611e7f565b9050919050565b7f596f7520646f206e6f742068617665207468697320626f6f6b206f7574206f6e60008201527f206c6f616e000000000000000000000000000000000000000000000000000000602082015250565b6000611f1e6025836116cd565b9150611f2982611ec2565b604082019050919050565b60006020820190508181036000830152611f4d81611f11565b9050919050565b6000604082019050611f69600083018561193d565b611f76602083018461156e565b9392505050565b7f4e487b7100000000000000000000000000000000000000000000000000000000600052603160045260246000fdfea26469706673582212203a0de1873591cae63ac6264ae7b60c7082714c7ef52b0b185e630a0f89fdad0564736f6c63430008140033",
  "linkReferences": {},
  "deployedLinkReferences": {}
}